:020000040800F2
:1000000070190020890200088B5C00087D440008FC
:10001000895C0008FD1A0008FD820008000000004D
:100020000000000000000000000000009B5C0008D1
:10003000771B000800000000995C00089D5C000828
:10004000A3020008A3020008A3020008A3020008FC
:10005000A3020008A3020008151C0008A302000860
:10006000A3020008A3020008A3020008A3020008DC
:10007000A3020008A3020008A3020008A3020008CC
:10008000A3020008A3020008A3020008A3020008BC
:10009000A3020008A3020008A3020008A3020008AC
:1000A000A3020008515D0008A3020008A302000893
:1000B000A3020008A3020008A3020008814400086C
:1000C000A3020008A3020008A3020008A30200087C
:1000D000A3020008A3020008A3020008A30200086C
:1000E000411C0008A3020008A3020008A3020008A4
:1000F000A3020008A3020008A3020008A30200084C
:10010000A3020008A3020008A3020008A30200083B
:10011000A3020008A3020008A30200086D5D000806
:10012000A3020008A3020008A3020008A30200081B
:10013000A3020008A3020008A3020008A30200080B
:10014000A3020008A3020008A30200088D5C0008B7
:10015000A3020008A3020008A3020008A3020008EB
:10016000A3020008A3020008A3020008A3020008DB
:10017000A3020008A3020008A30200080000000078
:10018000A3020008A302000800F002F800F06DF8D6
:100190000AA090E8000C82448344AAF10107DA45E2
:1001A00001D100F062F8AFF2090EBAE80F0013F0C7
:1001B000010F18BFFB1A43F0010318478CC9000058
:1001C000ACC900000A444FF0000C10F8013B13F0DA
:1001D000070408BF10F8014B1D1108BF10F8015BA0
:1001E000641E05D010F8016B641E01F8016BF9D193
:1001F00013F0080F1EBF10F8014BAD1C0C1B09D1EA
:100200006D1E58BF01F801CBFAD505E014F8016B5B
:1002100001F8016B6D1EF9D59142D6D370470000ED
:100220000023002400250026103A28BF78C1FBD8FF
:10023000520728BF30C148BF0B60704766290AF0DB
:100240001A86002070471FB50AF010FE9DE80300D3
:1002500000F0BEFA00F036FD0400002000210AF094
:100260003FF8E0601FBD10B510BD00F04DFE114617
:10027000FFF7E9FF09F054FD00F06BFE03B4FFF750
:10028000F2FF03BC00F0DCFE094880470948004744
:10029000FEE7FEE7FEE7FEE7FEE7FEE7FEE7FEE736
:1002A000FEE7FEE704480549054A064B7047000093
:1002B000415D0008890100087013002070190020BA
:1002C000701500207015002070B5064600F064FA25
:1002D000056806F10B0020F00704B4429CBF002023
:1002E00070BD2B466A68BAB11068A04210D304F101
:1002F000080188423CBF5068586007D35168101904
:1003000041601168091B016058601460101D70BDC8
:1003100013465268002AE7D12146284600F044FAE5
:100320000028DED170BD70B50446051F00F034FA18
:100330000068002C14BF446870BD002C18BFAC428C
:100340003CBF20466468F8D301680A18AA4218BF67
:10035000456003D12A6805461144016028684119A7
:10036000A1421CBF6C6070BD61686960216808446F
:10037000286070BD53EA020C00F069802DE9F04B53
:100380004FF00006002B1FBFB3FA83F503FA05F404
:1003900024FA05F65E4012BF1643B2FA82F502FA5D
:1003A00005F4C5F120051EBF22FA05FC44EA0C0441
:1003B000203556EA044C4FEA144418BF641C4FF031
:1003C00000084FF00009904271EB030C39D300296B
:1003D00019BFB1FA81F701FA07F6B0FA80F700FA0F
:1003E00007F6C7F120071EBF20FA07FC46EA0C06F5
:1003F0002037B6FBF4FCA7EB0507103F07F01F0BF7
:10040000CBF120060CFA0BFB2CFA06F644BFB346E0
:100410000026202FA4BF5E464FF0000B5BEA060CBF
:1004200008BF4FF0010B19EB0B09ABFB027C48EB4B
:100430000608C01B06FB02CC0BFB03CC71EB0C01C6
:10044000C1E70B46024641464846BDE8F08B13B56E
:100450004FF000004FF00001AFF30080BDE81C40FA
:10046000704700000FB41CB5074B06AA7B446946D1
:100470000090059800F001FC0020694600F010FC97
:100480001CBC5DF814FB0000310800000FB41CB563
:100490000C0007AA009001D02044401E074B7B446B
:1004A00069460190069800F0E8FB002C03D06946ED
:1004B000002000F0F5FB1CBC5DF814FB09080000EF
:1004C0002DE9F05F894604464FF0000ADFF824B1B9
:1004D000FB44C0F820A02046E168884700287DD072
:1004E000252806D0D4E901219047206A401C2062CB
:1004F000F1E700255F462046E16888472028064648
:1005000007DB312E05D2B81910F8200C08B10543CD
:10051000F1E7A80701D525F00405C4F81CA00027C1
:10052000C4F818A02A2E09D0304608F065FA38B36E
:1005300004EB8708303EC8F8186019E059F8041B2E
:10054000204604EB87029161E1688847012F064647
:1005500018D1E069002820DA25F020051DE0D8F840
:10056000180000EB800006EB40003038C8F8180097
:100570002046E1688847064608F03EFA0028EED19A
:10058000012F0AD02E2E08D12046E16888477F1C13
:100590000646022F45F02005C4DBA069002803DAD7
:1005A000404245F00105A061E80701D025F01005A3
:1005B000A6B1A6F14100192802D8203645F40065FD
:1005C0004A463146204625604D46FFF737FE60B16A
:1005D000012807D0ED1D25F0070000E007E000F13D
:1005E000080978E705F1040975E730467AE7206ADB
:1005F000BDE8F09F28C50000421E12F8013F002B05
:10060000FBD111F8013B002B02F8013BF9D17047F7
:10061000032A40F2308010F0030C00F0158011F82E
:10062000013BBCF1020F624498BF11F801CB00F806
:10063000013B38BF11F8013BA2F1040298BF00F85A
:1006400001CB38BF00F8013B11F0030300F0258017
:10065000083AC0F0088051F8043B083A51F804CB3E
:10066000A0E80810F5E7121D5CBF51F8043B40F804
:10067000043BAFF30080D20724BF11F8013B11F80F
:1006800001CB48BF11F8012B24BF00F8013B00F853
:1006900001CB48BF00F8012B704710B5203AC0F0DD
:1006A0000B80B1E81850203AA0E81850B1E8185073
:1006B000A0E81850BFF4F5AF5FEA027C24BFB1E8B0
:1006C0001850A0E8185044BF18C918C0BDE8104021
:1006D0005FEA827C24BF51F8043B40F8043B08BF2A
:1006E0007047D20728BF31F8023B48BF11F8012BF1
:1006F00028BF20F8023B48BF00F8012B70474FF09D
:1007000000020429C0F0128010F0030C00F01B80DE
:10071000CCF1040CBCF1020F18BF00F8012BA8BFEC
:1007200020F8022BA1EB0C0100F00DB85FEAC17CB0
:1007300024BF00F8012B00F8012B48BF00F8012B63
:1007400070474FF0000200B5134694469646203994
:1007500022BFA0E80C50A0E80C50B1F12001BFF47A
:10076000F7AF090728BFA0E80C5048BF0CC05DF8E0
:1007700004EB890028BF40F8042B08BF704748BF2E
:1007800020F8022B11F0804F18BF00F8012B7047A2
:1007900070477047704700000048704718130020EA
:1007A000704770477047704738B504460A460020C6
:1007B0006946AFF30080002808BF38BD02460099A3
:1007C000204600F087FA012038BD012000F094BBDC
:1007D000F8B5AFF30080054600200C46102000BF9E
:1007E0000646A819A0420DD9324669460020AFF34B
:1007F0000080070008BF00F07FFB0098A04218BFF0
:100800000546C419FFF7C8FF05600746F01D20F034
:1008100007004619284600F00AF8B44208BFF8BDA0
:10082000A21B31463868BDE8F84000F053BA0021F9
:100830000160C0E9011070471020704710B500F04A
:1008400045FA006810BD10B5044600F03FFA046098
:1008500010BD70472DE9FF4F0C461E464FF0FF3785
:100860008BB0D2E90001DDF860800A908A46C1F3BE
:100870000A5505B93D46002108464FF00000BAF17F
:10088000000F00F4400005DA00EB80004FF4400157
:1008900001EA50004FEA9059B9F1010F00DDB94665
:1008A0000A9850EA4A000ED044F61050A5F2FF35DF
:1008B00045432F14B8F1000F1ED07542291E1EDDCE
:1008C000C9F100021CE0B8F1010F4FF0000001D0A7
:1008D000302103E0F24305E02154401CB042FBDB31
:1008E00030460022002121540B99C1F80880C1E94B
:1008F00000200FB0BDE8F08FBD1B6D1CDEE74A463F
:1009000000DA694206A800F085FA06AB93E8070012
:1009100003AB83E8070050460A9900F0B7FB8DE867
:100920000700A0F500501F3800900398002D0ADD45
:1009300042F21F014A460844002303A90390684677
:1009400000F020FE09E0A0F500504A461F380023C1
:1009500003A90390684600F02AFE8DE80700000412
:10096000000C03D04FF0FF30410800E01046B8F112
:10097000000F03D00022009215461EE0751E05D41C
:1009800000F0C2F9303262556D1EF9D5B34601222E
:10099000084302D000227F1C04E02078302801D1D7
:1009A00000227F1E002A099784D01DE0112D07DA4E
:1009B00000F0AAF9303262556D1C50EA0102F5D1FF
:1009C000084302D00098C8B10EE00021681E05E07F
:1009D000235C625C63542254401E491C8142F7DB55
:1009E000AB46A81B401E0990002004F80B000B9892
:1009F000099AC0F80880C0E9002B7AE711264FF069
:100A0000000857E72DE9F04F88460446D21D22F032
:100A1000070191B0D1E90001CDE90A0107F06FFCAF
:100A200002460B98C00F01D02D2007E020688107F7
:100A300001D52B2002E0202101EAC000032A099001
:100A400001D0072A05DB03464146204600F0A2F903
:100A50000BE12078800601D5E06900E00620B8F1BE
:100A6000650F814606D0B8F1660F18D0B8F1670F50
:100A700070D131E00020B9F1110F009001DB11239A
:100A800001E009F101030AAA01A90CA8FFF7E2FE9F
:100A9000DDE90C70002609F10105834647E00120DD
:100AA0004B4600904FF000470AAA01A90CA8FFF797
:100AB000D1FEDDE90DB00C995D46002610B909F1B3
:100AC00001000D18B9EB050003D4C0F1FF3609F1A0
:100AD0000105A5EB09002BE0B9F1010F01DA4FF098
:100AE00001090020B9F1110F0090484601DD1123E2
:100AF00000E003460AAA01A90CA8FFF7ABFEDDE956
:100B00000C704D4600268346207800070AD4AB457A
:100B100000DA5D4601A8012D04DD411911F8011C20
:100B2000302907D04F4502DA17F1040F04DA01200B
:100B300082460FE06D1EEEE7002F02DCED1B3E4407
:100B400003E0781CA84200DD7D1CB81B00F1010AFF
:100B50004FF000472078000703D4AA4501DB4FF08F
:100B6000FF3A0021B7F1004F0DF143088DF8431013
:100B700024D002202B23002F01DA7F422D230A21CB
:100B8000021EA0F1010000DC5FB197FBF1FC97FBB6
:100B9000F1F201FB1C7C17460CF1300C08F801CD7A
:100BA000EEE7A8F1010003702188090501D5452170
:100BB00000E06521A0F1010800F8011C09980FA9C7
:100BC000A1EB0807FF1D00B10120411901EBEA70FC
:100BD000A1693844081A401EA0612078C00602D4DA
:100BE0002046AFF30080099828B1D4E9012190474D
:100BF000206A401C20622078C00622D52046AFF330
:100C000000801EE0002E04DBB34502DD01A8805DFC
:100C100000E03020D4E901219047206A401C206286
:100C2000761CAAF101005FEA000A0AD100F04AF836
:100C3000C0680168405CD4E901219047206A401CEB
:100C40002062281EA5F10105DCDC07E0D4E90121C2
:100C500018F8010B9047206A401C2062381EA7F14B
:100C60000107F3DC2046AFF30080032011B041E61A
:100C700001694A1C02610878704700B58FB0CDE960
:100C800001310021059105497944CDE90310114650
:100C90006846FFF715FC0FB000BD0000E5FFFFFF41
:100CA0000A6802F8010B0A607047D1E900239A42F2
:100CB00002D2531C0B601070704700000048704750
:100CC0001013002000487047301300200048704780
:100CD00010130020034640688C46002818BF884245
:100CE0003CBF03464068F8D318681844884207D0D0
:100CF0000CF1030020F00700001D411A521A0146B2
:100D0000081D0A60FFF70FBB30B5B0F10A024FEAC9
:100D1000900E71F100034EEA817EB0EB0E0061EBA4
:100D200091014FEA101E4EEA017E10EB0E0041EBDE
:100D300011114FEA102E4EEA016E10EB0E0041EB3E
:100D400011214FEA104E4EEA014E10EB0E0041EB1E
:100D50001141401841F100014FEAD00040EA4170D2
:100D60004FEAD10110EB80054FEA810444EA907408
:100D700044EB01046D1944EB0404521BA3414FF0F2
:100D8000000348BF0A3200D530BD401C41F10001CC
:100D900030BD00002DE9F0411F46044603260168DE
:100DA000072A01F4006004DB08B116A505E016A5CA
:100DB00003E008B115A500E015A521F010002060A2
:100DC000A069C01EA0610FB1401EA0612046AFF314
:100DD00000804FB1D4E9012138469047206A401C79
:100DE0002062C01C206206E0206AFAE7D4E90121F3
:100DF00015F8010B9047761EF8D22046AFF300801D
:100E0000BDE8F0814E414E006E616E00494E4600D5
:100E1000696E66002DE9F047814616468AB035486E
:100E200078440DC88DE80D0032487844801C03AC2E
:100E30000DC884E80D0041F69B300844372190FB33
:100E4000F1F290FBF1F5A5F1800501FB12041B3CCA
:100E500002D56442012000E00020DFF898A080461F
:100E60000027FA44AAF1BE0A0EE0E0070AD0324693
:100E7000684607EB470101230AEB810100F097FB6D
:100E80008DE8070064107F1C002CEED1194F7F44C1
:100E9000AE3F19E0E80715D007EB04100DF1180A72
:100EA00090E80E008AE80E00C068F04201D198195F
:100EB00008903246012306A903A800F078FB03AB93
:100EC00083E807006D10641C002DE3D14FF001038F
:100ED00032466946B8F1000F03A802D000F052FB79
:100EE00001E000F064FBC9E90001C9F808200AB07C
:100EF000BDE8F08708BD000010B500F039F8BDE886
:100F0000104000F02FB870477546FFF7D7FEAE4689
:100F100005006946534620F00700854618B020B505
:100F2000FFF7C0F9BDE820404FF000064FF0000782
:100F30004FF000084FF0000B21F00701AC46ACE881
:100F4000C009ACE8C009ACE8C009ACE8C0098D46EE
:100F5000704710B50446AFF300802046BDE810404E
:100F6000FFF78CB9002801D000F06AB87047000084
:100F700010B5012805D0002103A000F067F801207A
:100F800010BD09A1F8E7000053494752544D454DA3
:100F90003A204F7574206F662068656170206D651A
:100FA0006D6F7279000000003A2048656170206D15
:100FB000656D6F727920636F72727570746564000D
:100FC0004FF0013C50F8042B51F8043B9A4221D1D8
:100FD000A2EB0C03934313EACC1317D150F8042B64
:100FE00051F8043B9A4215D1A2EB0C03934313EA48
:100FF000CC130BD150F8042B51F8043B9A4209D181
:10100000A2EB0C03934313EACC13DBD04FF00000A8
:10101000704700BFD01A01BAB1FA81F101F018018E
:1010200022FA01F0CB40C1F12001DBB2C0B2C01AFC
:101030002CFA01F3D11A914311EAC311E6D170479A
:1010400001491820ABBEFEE72600020070B5054638
:101050000C460A2000E06D1C00F011F835B128782C
:101060000028F8D102E0641C00F009F814B12078DF
:101070000028F8D1BDE870400A20AFF3008008B521
:1010800069468DF800000320ABBE08BD5FEA400C46
:1010900008BF91F0000F4FEA8C234FEAC12243EAC8
:1010A00051514FEA1C5018BF00F5F0404FEA300094
:1010B00018BF41F000415FEA6C5C00F02980BCF190
:1010C000FF3F08BF40F080407047130C06BF12047A
:1010D0004FF0100C4FF0000C130E04BF12020CF175
:1010E000080C130F04BF12010CF1040C930F04BF82
:1010F00092000CF1020CD30F04BF52000CF1010C52
:1011000011464FF00002A0F11F00A0EB0C00704749
:1011100011F0004F08BF704731F000413FF4D5AFE8
:101120000B0C06BF09044FF0100C4FF0000C0B0E17
:1011300004BF09020CF1080C0B0F04BF09010CF1EC
:10114000040C8B0F04BF89000CF1020CCB0F04BF01
:1011500049000CF1010CCCF12003A0EB0C0022FAA9
:1011600003F302FA0CF241EA030100F101007047B7
:1011700020F07F4C80EA030023F07F47ACEB0703AD
:1011800003F57C5300F0004003F1FF032DE9804993
:101190004FEA154B09B44FEA144325EA0B4E24EAF3
:1011A00003480FF2042606EB132749083E785FEA4E
:1011B000320203FB0667C7F5000707FB06F64FEA96
:1011C00054374FEAD64606F1020607FB066CCCF10F
:1011D000005C4FEA1C472CEA074C07FB06F40CFBAB
:1011E00006F504EB15464FEA961634BF00204FF083
:1011F00000404FEAD13706FB07FC4FEA1C4C0CFBC2
:101200000BF7D21B03FB0CF761EB07010CFB0EF78E
:10121000B0EB074072EB17420CFB08F734BFA2EBB0
:101220000742B2EB074261EB17414FEA0C444FEA29
:10123000910706FB07FC4FEA1C4C0CFB0BF7B0EBCD
:10124000C74072EB573203FB0CF734BFA2EBC74227
:10125000B2EBC74261EB57310CFB0EF7B0EBC700A6
:1012600072EB57720CFB08F734BFA2EBC702B2EB6C
:10127000C70261EB5771039F4FEA816141EA921106
:1012800004EBCC044FEAD1374FEA826206FB07FC3D
:1012900042EA90124FEA80604FEA1C4C0CFB0BF7BD
:1012A000D21B03FB0CF761EB07010CFB0EF7B0EB55
:1012B000074072EB17420CFB08F734BFA2EB074262
:1012C000B2EB074261EB17414FEA8C554FEA9107A9
:1012D00004EB9C2406FB07FC4FEA1C4C0CFB0BF7B1
:1012E000B0EBC74072EB573203FB0CF734BFA2EBF5
:1012F000C742B2EBC74261EB57310CFB0EF7B0EBC4
:10130000C70072EB57720CFB08F734BFA2EBC702A1
:10131000B2EBC70261EB577115EB4C254FEA8161C7
:1013200041EA92114FEA82624FEAD13742EA9012C3
:1013300006FB07FC44F100044FEA80604FEA1C4CB6
:101340000CFB0BF7D21B03FB0CF761EB07010CFB4B
:101350000EF7B0EB074072EB17420CFB08F734BFF7
:10136000A2EB0742B2EB074261EB174115EB1C15EC
:101370004FEA813141EA92414FEA823242EA904299
:101380004FEA80304FEA0C7644F1000448EA034308
:101390004EEA0B484FF0000EB2EB080C71EB03075E
:1013A00024BF624639464EEB0E0E4FF0000B00187C
:1013B000524149414BEB0B0BB2EB080C71EB0307AD
:1013C0007BF1000B24BF624639464EEB0E0E4FF008
:1013D000000B0018524149414BEB0B0BB2EB080CD0
:1013E00071EB03077BF1000B24BF624639464EEBDD
:1013F0000E0E51EA020718BF46F0010616EB0E76F4
:1014000055F1000254F1000103D5BDE88901BDE8A2
:101410000088BDE88901BDE80048B619524141EB9A
:101420000101A3F10103704780807F7E7D7C7B7A80
:101430007978777676757473727171706F6E6E6D80
:101440006C6C6B6A6A696868676666656464636326
:1014500062616160605F5F5E5E5D5D5C5C5B5B5AAC
:101460005A59595858575756565555555454535319
:1014700052525251515050504F4F4F4E4E4D4D4D74
:101480004C4C4C4B4B4B4A4A4A49494948484847BF
:1014900047474746464645454544444444434343FD
:1014A0004342424242414141002B9C4630D47700A6
:1014B0002BD01CB54FEA370703B44FF010004FF0A4
:1014C0001001BAF1000F06D0BCF1000FDCBF40F0F4
:1014D000080040F008014FF000000FBCBDE81040CC
:1014E0000BF1010BBBF1010F08BF5FEA170722BF29
:1014F00012F1010211F101014FF0004143F100032B
:1015000000F0004043EA00007047F9D35708D0E7E5
:1015100046EA064613F1400F4FEA16461FDD13F167
:10152000200FDFBF16430A46002120335B42BED0A6
:10153000C3F1200746EA064602FA07F74FEA1646C5
:1015400046EA0706C3F1200722FA03F201FA07F779
:1015500021FA03F14FF0000342EA0702A7E746EA47
:10156000020646EA06464FEA164646EA0106BCBFB0
:1015700046EA0646360C4FF000034FF000024FF0EB
:10158000000194E72DE9804C9A46934670B491E8A7
:10159000380007C831EA400C48BF34EA430C03D591
:1015A000FFF7E6FDFFF780FFF0BCBDE8008C2DE9FA
:1015B000804C9A46934670B491E8380007C810F002
:1015C000804F08BF13F0804F03D100F005F8FFF7FC
:1015D0006BFFF0BCBDE8008C20F07F4780EA030081
:1015E00023F07F4C07EB0C03A3F57C5300F0004085
:1015F000A3F1FE0392F0000F00F0B38095F0000F0E
:1016000000F077802DE901494FEA11404FEA144676
:1016100021EA004800FB06FC24EA064708FB06F620
:1016200007FB08F800FB07F718EB06484CEB164CD5
:101630004FEA124B18EB07484FEA15464CEB1740A0
:1016400022EA0B4E0BFB06FC25EA06470EFB06F6CC
:1016500007FB0EFE0BFB07F71EEB064E4CEB164C82
:101660004FF000061EEB074E4CEB174B18EB0B0828
:1016700040F1000018EB0E0B58EB000840F10000A1
:101680008F1A4FF000013CBFC943661B14BFB5EB76
:10169000040C00213CBFC943F61B4FEA17444EEA35
:1016A0008E0E27EA04454FEA1C4704FB07622CEA2A
:1016B000074C05FB07F70CFB05F604FB0CFC16EBCF
:1016C000074642EB174216EB0C4642EB1C421BEB63
:1016D000060658EB0202414146EA9E0601D5BDE8E6
:1016E0000189B619524141EB0101A3F10103BDE8A3
:1016F00001894FEA14454FEA114724EA054621EAD9
:10170000074C05FB07F406FB07F70CFB06F105FB8E
:101710000CFC11EB074144EB17444FEA124711EB65
:101720000C4144EB1C4422EA074C05FB07F206FB84
:1017300007F70CFB06F605FB0CFC16EB074642EB25
:10174000174216EB0C4642EB1C456A1854F1000197
:1017500048BF7047B619524141EB0101A3F10103A3
:10176000704795F0000F37D04FEA11424FEA144707
:1017700021EA024624EA074C02FB07F106FB07F7C1
:101780000CFB06F402FB0CFC14EB074441EB174185
:101790004FEA154714EB0C4441EB1C4125EA074C7A
:1017A00002FB07F506FB07F70CFB06F602FB0CFC39
:1017B00016EB074645EB174516EB0C4645EB1C426E
:1017C000121951F1000148BF7047B619524141EB5F
:1017D0000101A3F1010370474FEA14454FEA114795
:1017E00024EA054621EA074C05FB07F106FB07F74B
:1017F0000CFB06F24FF0000605FB0CFC12EB074257
:1018000041EB174112EB0C4251EB1C4148BF7047B2
:10181000921841EB0101A3F101037047464910B54D
:101820004A6822F440324A604A6843681A434A6070
:1018300001684A6822F480724A6001684A68036954
:1018400042EA03224A6001684A6822F040724A6014
:1018500001684A6883681A434A6001688A6822F40A
:1018600000628A6001688A68C3681A438A60816A74
:101870006FF07062D14201688A6822F070628A60FB
:1018800001688A680CD0836A1A438A6001688A6892
:1018900022F040528A6001688A68C36A1A4301E0F4
:1018A00022F040528A6001688A6822F002028A604F
:1018B00001688A68037E42EA43028A6090F8201039
:1018C000002901684A680FD042F400624A6001684A
:1018D0004A6822F460424A6001684A68174C436AC9
:1018E00004EB43331A4301E022F400624A600168CA
:1018F000CA6A22F47002CA620168CA6A838B104CF9
:1019000004EB03531A43CA6201688A6822F4007226
:101910008A6001688A6890F8303042EA43228A601F
:1019200001688A6822F480628A6001688A68406976
:1019300042EA8020886010BD0023014000E0FFFFE4
:101940000000F0FF70B50A4E00243568306007E0F3
:1019500000F0A6F882B2A1B2002000F071F8641C79
:1019600000F0A4F8A042F3D8A8B2306070BD000027
:1019700070060020074B30B49B68DD881C689B888C
:10198000DB1DDB08203A13FB02F205FB024230BCF0
:1019900000F0F2B870060020014800688068004737
:1019A000C00000202DE9F0470446002799468A46EA
:1019B0001546B846104601E008F1010810F8011B71
:1019C0000029F9D100F06CF81C4E4A46B9F1010F1C
:1019D000B1688988B0FBF1F002D0022A17D105E086
:1019E000A0EB0800484304EB500003E0A0EB080024
:1019F0004843001B84B20AE051462046FFF7BAFF75
:101A0000B0687F1CBFB280886D1C204484B200F097
:101A100047F80146B068808807FB101189B28142FF
:101A200001D3012000E000202A780AB1012100E062
:101A300000210842E0D1BDE8F087000070060020D8
:101A40002DE9F04106460F4800240F4F0068154667
:101A50008846D0F820C0BCF1000F0FD0134638885C
:101A60000A463146BDE8F04180B2604738884146B9
:101A700082B2301980B200F009F8641CAC42F5D390
:101A8000BDE8F081C000002070060020034B1B68F9
:101A90005B69002B00D0184770470000C000002091
:101AA00001480068806A0047C000002001480068C3
:101AB000C06A0047C000002070B50D4C4FF6FF70A3
:101AC000012660600B48A0600B4D00202060686814
:101AD0008047A0F51341253907D10648001F05604E
:101AE0002868804703480026A060304670BD00008B
:101AF00070060020C4000020F8000020FEE770B54A
:101B000004460021084604EB8102491CC2F8840304
:101B10001029F8D300224FF40075A118521C81F847
:101B20001C01AA42F9D3207060700121A170C4F891
:101B3000C40321764022A271607684F81C0384F8E5
:101B40001D1384F81F0384F81E03090204F11C000E
:101B5000FEF7F7FD294604F58E70FEF7F2FD12211F
:101B600004F22630FEF7CBFD3E2104F54E70FEF761
:101B7000E8FD002070BD70472DE9F74FDFF890B009
:101B80000026DBF808008588C788E81D824620F01B
:101B90000700401B00F0FF0935E000BF4FEADA0103
:101BA0000298012901FB06000BD002290BD0017815
:101BB00042780904807841EA022141EA00080024C1
:101BC0001AE0007801E0008840BA8046F7E7291B58
:101BD00049440120491E884010EA080F02D0BBF892
:101BE000000001E0BBF80400019982B20098204493
:101BF00080B2FFF74BFF641CAC42E8D30198401C55
:101C000080B2761C0190BE42C8D3BDE8FE8F0000B2
:101C10007006002010B54FF48071054800F050FCAC
:101C200004A008F099FABDE81040012000F044BB80
:101C3000001802404B45592050524553534544002B
:101C400010B54FF4005000F037FBBDE810404FF4E2
:101C5000004000F031BB72B6FEE70022AFF3008017
:101C600030B50E4B054601205C7A002C14D1587A11
:101C70001C54587A03EB800045605D7A03F108003C
:101C80002A54587A421C5A72303008703A204870F0
:101C90002F208870CC70002030BD0000041300207D
:101CA00000B59BB04FF020400090144801900520F3
:101CB0001490012015900920169000200221CDE9F2
:101CC0001701CDE919100421CDE902101021CDE949
:101CD00004010690079009020890CDE909010C90D3
:101CE0000B900D900E90119000F00AF814AA114676
:101CF000684601F077FD1BB000BD0000040100A0A4
:101D0000294800B5016887B041F001010160006811
:101D100000F00100059024480838016841F00801EE
:101D20000160016801F008010591016841F01001AE
:101D30000160016801F010010591016841F0200186
:101D40000160016801F020010591016841F0400146
:101D500001600068694600F0400005900220019093
:101D600001200290032003900C2004904FF6337062
:101D700000900E4800F0ACFA4FF69B700090694658
:101D80000B4800F0A5FA4FF23F0000906946094861
:101D900000F09EFA40F23F4000906946064800F08D
:101DA00097FA07B000BD000038380240000C02402E
:101DB00000100240001402400018024030B5B3F594
:101DC000804F05D06FF0704140F82210002030BDE8
:101DD0008C690B688D6823434C688989240144EA27
:101DE0000524234343EA014150F82230014C2340AB
:101DF0001943E9E70000F0CF10B50A6850F8223027
:101E000023F0010340F822308C68082C23D00023F3
:101E10004A682243CC681C430B6922431A434B692E
:101E20000E4C1A43CB691A430B6A1A434B6A1A4386
:101E30008B6A1A43CB6A1A430B6B1A438B691343A1
:101E4000CA6B09681A4350F82130A343134340F882
:101E50002130002010BD4023DAE700007FFF0F0093
:101E600030B5D1E9003443EA04138C688D8924022B
:101E700044EA054423430C8A094D00EB820005EB3C
:101E8000045423430C7D6D0105EB046489692343ED
:101E90000B43416801F040410B434360002030BDDB
:101EA0000000F0FF78B50024009490F83C20012A4F
:101EB00019D0012280F83C200A6807230568092A06
:101EC00013D9EE680A3A02EB420293409E43EE6059
:101ED0000B788A680A3B03EB43039A400368DD688A
:101EE0002A43DA6010E0022078BD2E6902EB42023C
:101EF00093409E432E610B788A6803EB43039A401C
:101F000003681D692A431A614A681F23072A13D2EE
:101F100005686E6B521E02EB820293409E436E6315
:101F20000B790A885B1E92B203EB83039A40036825
:101F30005D6B2A435A6327E005680D2A12D22E6B87
:101F4000D21F02EB820293409E432E630B790A88D4
:101F5000DB1F92B203EB83039A4003681D6B2A4395
:101F60001A6311E0EE6A0D3A02EB820293409E433F
:101F7000EE620B790A880D3B92B203EB83039A4021
:101F80000368DD6A2A43DA62164B0568144A9D42EB
:101F900006D10D68122D03D1556845F480055560B2
:101FA00005689D4218D10B68102B01D0112B13D15D
:101FB000536843F400035360096810290CD10A499F
:101FC0000A4A0968B1FBF2F101EB8101490000E026
:101FD000491E00910029FBD180F83C40002078BDCB
:101FE0000023014000200140BC00002040420F00BF
:101FF00070B504004FF0000503D0206C002610B12E
:1020000007E0012070BD204600F01CF8666484F8EB
:102010003C60206CC00610D4206C20F4885040F046
:10202000020020642046FFF7F9FB6664206C20F074
:10203000020040F00100206400E0012584F83C60CB
:10204000284670BD10B586B0044614216846FEF7D8
:1020500078FB1249206888421DD11148002102688E
:1020600042F480620260006800F4806005900C48D1
:102070001438026842F020020260006800F020007C
:1020800005904FF4C06000900320CDE9010169463E
:10209000044800F01DF906B010BD00000022014008
:1020A000443802400014024018B50021009190F815
:1020B0003C20012A07D0012280F83C200268936866
:1020C000DB0702D011E0022018BD936843F0010342
:1020D00093602E4A2E4B1268B2FBF3F202EB4202DF
:1020E00000E0521E0092002AFBD102689368DB07D1
:1020F00042D0036C40F20164A34343F48073036451
:1021000053685B0505D5036C23F4005343F48053F7
:102110000364036CDB0404D5436C23F006034364BF
:1021200000E0416480F83C101A496FF0220313600C
:1021300049680068CA06184906D0884224D18168D7
:1021400011F0405F13D01FE08842F8D0134A90424C
:1021500003D1D1F80423D206F1D0114A904213D111
:10216000D1F8041301F01F011029E8D30CE08168B5
:1021700041F08041816007E0016C41F01001016491
:10218000416C41F001014164002018BDBC000020F9
:1021900040420F0000230140002001400021014087
:1021A0000022014090F83510022903D080214165BA
:1021B00001207047052180F835100068016821F082
:1021C000010101600020704790F835007047000061
:1021D00070B5044600F082F90546601C02D0044840
:1021E0000078044400F07AF9401BA042FAD370BD95
:1021F000B0000020F0B587B014216846FEF7A1FAC0
:1022000025480168002944D10121016023480024A8
:10221000016841F0010101600068022500F0010041
:1022200005904FF69B70CDE9000502AA03260C2706
:1022300082E8D00069461A4800F04AF84FF6FB7071
:10224000CDE9000502AA694682E8D000154800F0F1
:102250003FF88020CDE9000502AA694682E8D00057
:10226000114800F035F840F23F60CDE9000502AAC0
:10227000694682E8D0000D4800F02AF84FF23F008E
:10228000CDE9000502AA694682E8D000084800F0BE
:102290001FF807B0F0BD0000A80000203838024049
:1022A00000100240000C02400004024000180240EE
:1022B0000014024070470000044910B50A68024249
:1022C00002D00860FFF7F6FF10BD0000143C01408B
:1022D0002DE9F84FDFF8BCA10022012503264FF0BD
:1022E0000F090AF1040BAAF1040E00BF0B6805FAEE
:1022F00002F42340A34270D10F7907F00307012FA6
:1023000001D0022F16D187684FEA420806FA08FC6E
:1023100027EA0C07D1F80CC00CFA08FC4CEA070CB1
:10232000C0F808C04768A7430C79C4F30014944070
:102330003C4344600C79E443A4070AD0C4684FEAE4
:10234000420C06FA0CF7BC438F6807FA0CF72743D8
:10235000C7600C7904F00304022C12D1D40800EBFE
:10236000840CDCF820405707FF0E09FA07F824EA2E
:102370000804D1F8108008FA07F848EA0408CCF8F5
:10238000208004684FEA420C06FA0CF7BC430F7930
:1023900007F0030707FA0CF7274307604C6814F4AB
:1023A000403F70D03C4C276847F480472760246842
:1023B00022F0030704F480440094384C07EB040C2B
:1023C000DCF8084897074FEA177809FA08F7BC4382
:1023D000334FB84202D1002724E054E0314FB842D5
:1023E00001D101271EE0304FB84201D1022719E088
:1023F0002E4FB84201D1032714E02D4FB84201D12E
:1024000004270FE02B4FB84201D105270AE02A4FDD
:10241000B84201D1062705E0284FB84201D107276D
:1024200000E0082707FA08F72743CCF80878DAF81D
:1024300000405746D1F804C09C435FEACC2C00D53D
:102440001C433C60DBF800405F46D1F804C09C436D
:102450005FEA8C2C00D51C433C60DEF800407746D8
:10246000D1F804C09C435FEA8C3C00D51C433C601F
:10247000084F083F3C68D1F804C09C435FEACC3C5D
:1024800000D51C433C60521C102AFFF42FAFBDE85E
:10249000F88F0000083C0140443802400030014001
:1024A000000002400004024000080240000C02400C
:1024B000001002400014024000180240001C0240BC
:1024C000426921EA02030A4043EA024181617047FE
:1024D0000AB1816170470904FBE700000148806888
:1024E00070470000B0000020D0F8DC0304F0A7B86B
:1024F000D0F8DC0304F0ADB8006805F075BB0068E7
:1025000005F076BBC1EB011100EB8100002200F861
:102510001A2F4270C272827210467047C1EB0111CD
:1025200000EB810090F84C007047C1EB011100EB0B
:102530008100806B704710B5044690F8D4030128E1
:1025400009D0012084F8D403206805F05CFB00204A
:1025500084F8D40310BD022010BD2DE9FF4F83B0D5
:102560000546DDE9117690F8D403DDF84080934606
:102570008A4601281CD0CAEB0A11012305EB81040D
:1025800085F8D4334FF0000984F819900698207527
:1025900084F815A084F826700BF07F00A0755146D2
:1025A0002846FFF7AFFF5FEA0B6005D5E37505E04E
:1025B000022007B0BDE8F08F84F81790286805F076
:1025C00017FB012F06D1B8F1010F03D110B9BC2EB2
:1025D00000D9BC2684F81880B0B22085CDF80080E0
:1025E000CDE9017028685A465146069B05F076FBF6
:1025F00085F8D493DDE770472DE9F0030E46DDE959
:1026000006C9DDE90874C1EB061100EB8101022562
:10261000CA7581F82630BCF1000F0AD081F82A5023
:10262000002463B1012B31D0022B28D0032B16D10B
:1026300025E04FF0030881F82A804C76F0E7BCF1E2
:10264000010F0CD11AB18A7E012A19D007E0D7B93F
:10265000012281F83D2000E0C2B181F82A50C1F882
:102660002C904F6381F84C408C634E7581F84D403F
:1026700082790068BDE8F003143105F0BFBB12B1E8
:1026800091F83C20E8E791F83D20E5E781F82A4001
:10269000E5E700002DE9F04106680446304605F004
:1026A000AEFA012877D1206805F064FD002872D0C9
:1026B000206805F05FFD800203D521684FF400100B
:1026C0004861206805F056FDC00203D521684FF42B
:1026D00080104861206805F04DFD400103D5216858
:1026E0004FF080604861206805F044FD800702D506
:1026F000216802204861206805F03CFD800018D563
:1027000021684FF000504861D6F84004C00710D14E
:102710001021304605F04AFA304605F02BFA607A6F
:10272000022803D10121206805F000FD2046FFF7B3
:10273000DFFE206805F01EFDC00102D5204601F035
:1027400010FE206805F016FD000705D5204600F0B4
:10275000DAF8216808204861206805F00BFD800147
:1027600024D5206805F046FB074600254FF00108F8
:1027700015E000BF05F00F0108FA01F038420DD056
:1027800006EB4510D0F80005E9B20004204603D559
:1027900001F0B8FA02E01CE001F072FC6D1C6079F7
:1027A000A842E7D821684FF000704861206805F022
:1027B000E1FCC043C0060CD42068816921F01001FF
:1027C0008161204601F017FE2068816941F0100107
:1027D0008161BDE8F081F8B5040005D094F8D50317
:1027E0002568002610B106E00120F8BD84F8D46306
:1027F000204600F029F8032084F8D503B5F1A04F56
:1028000000D1A671206805F081F9207C8DF80000C8
:1028100094E80F0005F01AF9022560B9012120683B
:1028200005F0E4FC38B9207C8DF8000094E80F0036
:1028300005F014FC10B184F8D553D5E7012084F8D5
:10284000D5030020F8BD0000F0B587B00446142180
:102850006846FDF776FF2068B0F1A04F42D12248CC
:102860000024016841F0010101600068022500F0C8
:10287000010005904FF4C050CDE900050320CDE9DB
:1028800002401A4F0A26694604963846FFF720FD93
:1028900068020090CDE90154CDE903466946384607
:1028A000FFF716FD2802CDE9000469463846029478
:1028B000FFF70EFD0C48001D016841F0800101602A
:1028C00009481430016841F4804101600068002229
:1028D00000F4804005901146432000F069FC43203D
:1028E00000F058FC07B0F0BD303802400000024054
:1028F000D0F8DC0303F03EBFD0F8DC0303F03EBFAA
:10290000006805F05ABCD0F8DC0303F0EDBE10B54A
:10291000044690F8D40301280DD0012084F8D40394
:102920000121206805F00AF9206805F01DF9002052
:1029300084F8D40310BD022010BD10B5044690F8F1
:10294000D403012809D0012084F8D403206805F0BD
:102950007BFC002084F8D40310BD022010BD70471A
:1029600070472DE9F047026800215368C66A90F865
:102970003E4090F83D50102C12D0402C10D0046CEA
:10298000002C7DD05469E443A6077AD4DE43B60513
:1029900077D4036C03B19169BDE8F04702F01CBA2B
:1029A000976951694FF42A0CC9435FEAC1784FF027
:1029B0002A4904D066452AD04E4528D010E0DE438F
:1029C000B6050DD4C16A614501D1012103E0C16A98
:1029D000494501D10821C162BDE8F04702F090B835
:1029E0000E0716D4DE43B60513D4416CC9B211618B
:1029F000416B09B1C96B29B9816B002907D0C96B3B
:102A0000002904D00068416841F400614160BDE8DC
:102A1000F0878E0706D4DE43B60503D4BDE8F04741
:102A200001F0E2BFFE43526876074FEA02521DD41E
:102A3000002AECDB0A0608D4DA43520505D449071C
:102A400005D5BDE8F04701F073BF4907DFD4D9438E
:102A50008905DCD4212D05D0402CD8D1BDE8F04724
:102A600002F094B8BDE8F04701F020BF002ACEDBA9
:102A70004A060BD4DA43520508D4490708D501E0C9
:102A80000DE00EE0BDE8F04701F096BE4907BED468
:102A9000D9438905BBD4BDE8F04701F020BE916958
:102AA00070E7E10606D4D943890503D4BDE8F047B1
:102AB00002F0B6B92821212D27D0292D25D0650671
:102AC00055D4DD436D0552D4640752D590F83D309E
:102AD000448D002C9BD01269446A2270426A521CB9
:102AE0004262428D521E4285428D002A8FD12A2B8E
:102AF0008DD10268536823F48063536022220263FD
:102B000080F83D1000F0E8FA81E7250623D4DD4384
:102B10006D0520D4640720D590F83D30448D002CFD
:102B2000F2D0446A24781461426A521C4262428D97
:102B3000521E4285428D002AE6D1292BE4D102683B
:102B4000536823F4806353602122026380F83D10B0
:102B500000F0C3FA5BE76107D6D4D9438905D3D423
:102B6000418D0029D0D0416A097811610AE06107DE
:102B7000CAD4D9438905C7D4418D0029C4D011696D
:102B8000426A1170416A491C4162418D491E41856A
:102B90003DE7704770B5040025D094F83D0000254E
:102BA00020B984F83C50204600F058FA242084F8DC
:102BB0003D002068016821F0010101602068016882
:102BC00041F4004101602068016821F40041016086
:102BD00000F0BAFB4D4A6168914201D84C4900E0CF
:102BE0004C49884201D2012070BD4B492368B0FB9B
:102BF000F1F15E6826F03F060E435E606368934223
:102C000006D94FF4967359434FF47A73B1FBF3F13D
:102C10002368491C1E6A26F03F0631431962616829
:102C2000914210D84900401EB0FBF1F2521CC2F391
:102C30000B02042A01D2042022E0B0FBF1F0401C78
:102C4000C0F30B001CE0A268F2B301EBC10303EB7D
:102C50000116431EB3FBF6F35B1C43F480431B05D4
:102C600049D092B301EBC10202EB0111401EB0FB4F
:102C7000F1F0401CC0F30B0040F4804040F40040F1
:102C80002168CA694CF6FF739A431043C861D4E9BE
:102C9000071001432068026822F0C002114301605E
:102CA000D4E9030101432068826848F2FF339A4364
:102CB00011438160D4E9050108432168CA6822F004
:102CC000FF021043C86001E00EE016E020680168D2
:102CD00041F0010101602564202084F83D00256356
:102CE00084F83E50002070BD01EB4106431EB3FB4B
:102CF000F6F35B1CB3E70120C2E701EB4101401E84
:102D0000B0FBF1F0401CC0F30B00B7E7A086010058
:102D100080841E0000093D0040420F00704770474C
:102D200070477047704700002DE9FF4F83B09A4607
:102D3000DDE9118793460446DDF84090FFF7CEFBAE
:102D4000054694F83D00202870D1192301227449CA
:102D50002046009502F03EF90028F5D194F83C0099
:102D6000012863D0012084F83C0020680168C9076D
:102D700003D1016841F0010101602068016821F47C
:102D800000610160222084F83D00402084F83E006C
:102D900000262664C4F82490A4F82A80608D20853B
:102DA0006048E062CDE9007553465A4620460499D2
:102DB00001F040FF002879D1208DD0B1012821D029
:102DC0000228206824D0416980690090208D032862
:102DD00066D801282BD0544902283B464FF0000208
:102DE000009557D08846204602F0F4F800285DD1BF
:102DF0003AE02068416981690091016841F40071FD
:102E000001607DE02068016821F480610160F0E7E5
:102E1000016821F4806101602068016841F400616B
:102E20000160206841698069009069E075E02A4688
:102E30003946204602F074F988BB54E020680168E6
:102E400041F40071016020680069616A0870606A7D
:102E5000401C6062218D491E2185618D491E61855E
:102E600021680969017042E02068016821F48061ED
:102E7000016020680069616A0870606A401C6062D5
:102E8000208D401E2085608D401E60853B460022BF
:102E900041460095204602F09DF800B9CEE705E0D6
:102EA0002A463946204602F03BF918B1012007B006
:102EB000BDE8F08F20680069616A0870606A401C94
:102EC0006062208D401E81B22185608D401E60852C
:102ED00020684269D243520712D4032903D1016802
:102EE00021F48061016020680069616A0870606A8D
:102EF000401C6062208D401E2085608D401E6085D4
:102F0000208D00287FF462AF202084F83D0084F8F3
:102F10003E6084F83C600020C9E70220C7E700005B
:102F2000020010000000FFFF040001002DE9FF4F28
:102F300083B09A46DDE9119793460446DDF8408058
:102F4000FFF7CCFA054694F83D0020287FD11923DD
:102F5000012240492046009502F03CF8002876D135
:102F600094F83C00012872D0012084F83C002068CD
:102F70000168C90703D1016841F0010101602068BF
:102F8000016821F400610160212084F83D004020A7
:102F900084F83E0000262664C4F82480A4F82A9011
:102FA000608D20852C48E062CDE9007553465A4675
:102FB0002046049901F0BCFE70B930E02A4639463B
:102FC000204602F0E5F858B1206C042804D12068AE
:102FD000016841F400710160012007B0BDE8F08F85
:102FE000606A216800780861606A401C6062218D17
:102FF000491E89B22185628D521E628522685369FD
:10300000DB435B070BD469B100781061606A401C38
:103010006062208D401E2085608D401E6085208D61
:103020000028CBD12A463946204601F0A7FF0028C8
:10303000CAD154F83D0B016841F4007101602020B1
:1030400004F81E09E67766770020C6E7FFE702204E
:10305000C3E70000020010000000FFFF10B586B0BB
:10306000044614216846FDF76CFB18492068884225
:1030700029D117480021026842F00202026000686C
:1030800000F0020005904FF41070009012200190A3
:103090000120CDE902010420049069460D48FFF7A4
:1030A00017F90B481030016841F400110160006805
:1030B000002200F40010059011461F2000F078F85F
:1030C0001F2000F067F806B010BD0000005400405B
:1030D000303802400004024070477047024881685F
:1030E0000278114481607047B00000200B4810B591
:1030F000016841F400710160016841F48061016080
:10310000016841F480710160032000F071F8002033
:1031100000F006F800F024F8002010BD003C02404A
:1031200070B50D4D04464FF47A712878B1FBF0F07C
:103130000A490968B1FBF0F000F084FB48B9102C93
:1031400007D200222146501E00F032F800206C60A9
:1031500070BD012070BD0000B0000020BC00002048
:103160000B4882B0016841F480410160006800F4BE
:10317000804000900648001F016841F080510160C6
:10318000006800F080500090072002B000F030B8D6
:1031900044380240002809DB00F01F020121914061
:1031A0004009800000F1E020C0F8001170470000E5
:1031B000F0B40E4B1B680C46C3F30223C3F10705A2
:1031C000042D00D90425191D072901D2002300E090
:1031D000DB1E012606FA05F1491E214099409E405A
:1031E000761E16403143F0BC05F0A1B80CED00E0AE
:1031F000064900F0070208684FF6FF03184040EA4E
:103200000220034A10430860704700000CED00E004
:103210000000FA052DE9F0470E46050065D0DFF8FD
:103220001481D8F80000F7B200F00700B04207D2CE
:1032300088F80070D8F8000000F00700B04254D1C0
:1032400028683D4C810712D5400703D5206840F41B
:10325000E05020602878000703D5206840F46040E3
:1032600020602068A96820F0F000084320602878DA
:10327000C0072DD0304968680839012812D00228CB
:1032800013D0032811D00968890700292DDA216895
:1032900021F0030101432160FFF720F9814641F24B
:1032A000883A0EE009688903EFE709688901ECE7CD
:1032B000FFF714F9A0EB0901514502D90320BDE83D
:1032C000F0872068696800F00C00B0EB810FEFD147
:1032D000D8F80010404601F00701B14207D9077045
:1032E000006800F00700B04201D00120E7E728782D
:1032F000400705D52068E96820F4E05008432060C5
:103300002878000706D52068296920F4604040EA43
:10331000C100206000F038F82168084AC1F30311A9
:10332000515CC8400649086006480068FFF7F8FE8F
:103330000020C4E7003C0240083802407AAE000892
:10334000BC000020B400002004480549006809685A
:10335000044AC1F38221515CC8407047BC00002080
:10336000083802408AAE0008044805490068096828
:10337000044AC1F34231515CC8407047BC00002090
:10338000083802408AAE0008154810B5006810F0F1
:103390000C02144813D01449042A0FD0082A0ED165
:1033A0000F4C241F2268236802F03F025B0207D5FE
:1033B0002068C0F38810A0FB010106E0084610BD9C
:1033C0002168C1F38811A1FB00010023FCF7D2FFA3
:1033D0002168C1F30141491C4900B0FBF1F010BD67
:1033E000083802400024F40040787D01F0B51F4CFD
:1033F00016460D461D4B002102220327283C0028BB
:10340000186887B019D040F004001860186800F000
:103410000400059010020090CDE90121CDE903716F
:1034200069461348FEF754FF206845EAC60120F0BC
:1034300078400843206007B0F0BD40F001001860FC
:10344000186800F0010005904FF480700090CDE9FD
:103450000121CDE9037169460648FEF739FF20686E
:10346000354320F0EC602843E4E7000030380240A8
:1034700000080240000002402DE9F84F04006ED021
:103480002078DFF84C93C007A9F104054AD009F170
:1034900004000168C1F38101012908D00068C0F36C
:1034A000810002280AD1D9F80000400206D5286818
:1034B000800337D560680028E1D033E06068B0F55C
:1034C000803F10D0B0F5A02F286810D020F48030B5
:1034D0002860286820F4802028606068A8B1FEF782
:1034E000FDFF06460DE0286840F48030F4E740F424
:1034F00080202860F7E700BFFEF7F0FF801B6428FC
:1035000073D828688003F7D50CE0FEF7E7FF06467E
:1035100005E000BFFEF7E2FF801B6428F0D82868B2
:103520008003F7D42078DFF8AC8280074FF0000AE0
:103530003ED5A748001D016811F00C0F08D00068A7
:10354000C0F3810002280BD1D9F80000400207D453
:103550002868800716D5E068012800D112E033E121
:10356000E068B8B10120C8F80000FEF7B7FF0646D2
:1035700005E000BFFEF7B2FF801B0228C0D8286814
:103580008007F7D52868216920F0F80040EAC100DB
:1035900028600DE0C8F800A0FEF7A0FF064604E092
:1035A000FEF79CFF801B02281FD828688007F7D4ED
:1035B0002078000722D5864F87486169703771B13E
:1035C00001210160FEF78AFF064604E0FEF786FF50
:1035D000801B022809D838688007F7D50EE0C0F8AC
:1035E00000A0FEF77BFF064605E082E0FEF776FFCF
:1035F000801B02287DD838688007F7D420784007E0
:1036000068D5DFF8CCB100270BF13C0BDBF80000EC
:10361000C0000BD4DBF8001041F08051CBF8001053
:10362000DBF80000012700F0805000906B4E3068FE
:10363000C00510D4306840F480703060FEF74EFF53
:10364000009005E0FEF74AFF0099401A022850D882
:103650003068C005F6D55E4EA0686C3601280FD0E4
:103660000528306810D020F001003060306820F06C
:1036700004003060A068B8B1FEF730FF00900FE0A2
:10368000306840F00100F4E740F004003060F7E7F4
:10369000FEF724FF0099411A41F28830814266D832
:1036A00030688007F4D50EE0FEF718FF009007E0C1
:1036B000FEF714FF0099411A41F28830814256D832
:1036C00030688007F4D42FB1DBF8001021F080516E
:1036D000CBF80010A069C8B33D49091D0968C1F3C2
:1036E000810102294AD00228504607D0C8F860005C
:1036F00000E03CE0FEF7F2FE04463BE04746C8F837
:103700006000FEF7EBFE064605E000BFFEF7E6FEB2
:10371000801B02282BD828688001F7D4D4E9070140
:103720000843A16A2E4A490802EB0141626A41EA54
:103730008211084394F82C1040EA0161C9F8001086
:1037400001203866FEF7CAFE044606E03EE000BFF0
:10375000FEF7C4FE001B022809D828688001F7D5AF
:1037600034E000BFFEF7BAFE001B022802D9032096
:10377000BDE8F88F28688001F4D427E00128F7D04D
:10378000D9F80000E26900F4800191421CD1226A5C
:1037900000F03F01914217D147F6C071626A0140C3
:1037A000B1EB821F10D1A26A4FF0FF3300F4403119
:1037B00003EB5202B1EB024F06D194F82C1000F04B
:1037C0007060B0EB016F01D00120D1E70020CFE79E
:1037D0000438024000004742800E4742007000401B
:1037E0000000FFFF70B515460E46040003D094F8A4
:1037F000490010B107E0012070BD002084F84800A6
:10380000204600F01DF804F108012068FEF7F4FAE4
:103810003146A2682068FEF723FBD4E9010229465D
:10382000236BFEF7CBFA2168A06851F8202042F004
:10383000010241F82020012084F84900002070BDD9
:10384000FEF7D8BC10B5401EB0F1807F01D3012037
:1038500010BD4FF0E02460610F21601704F067FD98
:103860000020A06107202061002010BD7047704734
:1038700070B590F83C20012A32D0012480F83C40F9
:10388000022280F83D2003685A689D6822F0700685
:103890000A6832435A60134B02689A4214D0B2F15C
:1038A000804F11D0104B9A420ED0104B9A420BD041
:1038B0000F4B9A4208D00F4B9A4205D00E4B9A42BA
:1038C00002D00E4B9A4204D1496825F08003194377
:1038D000916080F83D40002180F83C10084670BDA2
:1038E000022070BD000001400004004000080040BC
:1038F000000C00400004014000400140001800405E
:1039000010B5040003D094F83D0010B107E0012089
:1039100010BD002084F83C00204600F01FF8022073
:1039200084F83D00211D206802F030FA012084F85F
:10393000460084F83E0084F83F0084F8400084F894
:10394000410084F8420084F8430084F8440084F87D
:10395000450084F83D00002010BD000008B5006857
:10396000154988420FD11548016841F020010160D6
:103970000068002200F02000009011463720FFF779
:1039800017FC372012E00E49884213D10B48001D66
:10399000016841F4003101600068002200F4003049
:1039A000009011461920FFF703FC1920BDE80840DC
:1039B000FFF7F0BB08BD0000001400404038024093
:1039C0000044014090F83D10012901D001207047CA
:1039D000022180F83D100168CA6842F00102CA6005
:1039E00000681149884214D0B0F1804F11D00F49BE
:1039F00088420ED00E4988420BD00E49884208D02A
:103A00000D49884205D00D49884202D00C498842B0
:103A100004D1816801F00701062903D0016841F053
:103A200001010160002070470000014000040040D7
:103A300000080040000C004000040140004001402C
:103A40000018004070472DE9F04104460068C66840
:103A500005694FF00007A90713D5B10711D5F91E65
:103A6000016101202077206880698007204602D00C
:103A7000FFF7E8FF04E000F07EF8204600F07CF855
:103A80002777680716D5700714D521686FF00400F2
:103A90000861022020772068806910F4407F20466A
:103AA00002D0FFF7CFFF04E000F065F8204600F0F9
:103AB00063F82777280715D5300713D521686FF0ED
:103AC00008000861042020772068C069800720462C
:103AD00002D0FFF7B7FF04E000F04DF8204600F0F9
:103AE0004BF82777E80616D5F00614D521686FF055
:103AF00010000861082020772068C06910F4407F1A
:103B0000204602D0FFF79EFF04E000F034F8204684
:103B100000F032F82777E80708D0F00706D02168D0
:103B20006FF001000861204600F027F8280608D54C
:103B3000300606D521686FF0800008612046FFF747
:103B400095FE680608D5700606D521686FF040001E
:103B50000861204600F012F8A8060AD5B00608D57C
:103B600021686FF0200008612046BDE8F041FFF7B2
:103B70007EBEBDE8F081704770477047704770B5F2
:103B8000040004D094F84100002510B106E00120A3
:103B900070BD84F84050204600F024F8242084F8BA
:103BA00041002068C16821F40051C160204602F044
:103BB00081F92068016921F490410161206841691F
:103BC00021F02A0141612068C16841F40051C160BF
:103BD0006564202084F8410084F842006563002079
:103BE00070BD0000F0B587B0044614216846FCF7AC
:103BF000A8FD1949206888422CD118480024016882
:103C000041F480210160006800F480200590134891
:103C10001038016841F0040101600068022500F0DD
:103C2000040005904FF400600090CDE90154072690
:103C30000B4FCDE9034669463846FEF749FB68025B
:103C4000CDE900050320CDE90240694604963846D7
:103C5000FEF73EFB07B0F0BD004800404038024090
:103C6000000802402DE9F843044690F841009846C8
:103C700016460D46202802D00220BDE8F88385B103
:103C80007EB100206064212084F84100FEF726FC0C
:103C9000A6848146E684A0682027B0F5805F02D024
:103CA00003E00120E9E7206910B12E4600250EE06F
:103CB00000260CE08021204602F082F9A8B9C6B1A6
:103CC00016F8010B21684860E08C401EE084E08C0F
:103CD0004B464FF00002CDF800800028EAD14FF0AB
:103CE0004001204602F06CF940B184F84170032095
:103CF000C3E735F8020BC0F30800E3E784F841702E
:103D00000020BAE72DE9F05F054600680E46074639
:103D100004F028FAC6EB061140074FF007084FF0F1
:103D2000040905EB810401D5484633E03146286893
:103D300004F018FAC0054FF0080A08D507EB461141
:103D40004FF48070C1F8080584F84DA028E0314692
:103D5000286804F007FA000705D507EB4611C1F8FB
:103D600008A506200CE03146286804F0FBF9400560
:103D700009D507EB46114FF48060C1F8080509200A
:103D800084F84D000CE03146286804F0EBF9000699
:103D90000AD5802007EB4611C1F8080584F84D804C
:103DA0003146286803F02FFF3146286804F0DAF91D
:103DB00080052868314604D503F025FF4FF40070D4
:103DC00059E104F0CFF9C0074FF0200B4FF0010A82
:103DD0004FF000084ED007EB4617C7F808B5E07E55
:103DE000012807D184F81B80D7F8040520F480301F
:103DF000C7F80405A87930B1206BD7F81015C1F3C6
:103E00001201401AA06384F84DA0C4F844805246C1
:103E1000C7F808A594F8260030B1022804D003287A
:103E20000AD0012808D013E03146286803F0EBFEE1
:103E30001020C7F808050BE0D7F8000540F0005047
:103E4000C7F8000584F84C2031462846FEF7D3FB1E
:103E5000A879012807D1208DA16B0144491EB1FB2F
:103E6000F0F0C00704D014F83C0F80F0010020707F
:103E7000BDE8F09F3146286804F074F980060CD53F
:103E800007EB4611C1F808B5A07E0128F0D184F8EF
:103E90001BA0032084F84D00B4E03146286804F0EC
:103EA00061F980074FF0050B75D507EB461002212D
:103EB000C0F8081594F84D20012A16D0062A19D00A
:103EC000072A1CD0092A1AD0052A33D0032A63D026
:103ED000042A7DD0082A7ED0022AC9D094F84C202A
:103EE00031462846FEF787FBC2E784F84D1084F878
:103EF0004CA0F3E784F84D1084F84CB0EEE784F85A
:103F00004D10626C521C6264022A10D9C4F84480BD
:103F1000A27E4146012A07D1E1762177D0F8041527
:103F200021F48031C0F8041584F84C90D6E784F869
:103F30004C1022E084F84D10E27E012ACED194F894
:103F40002620032AF3D1A26C521CA264022A11D9A2
:103F5000C4F8488084F81B80616C032901D284F87E
:103F60001CA0D0F8041521F48031C0F8041584F8A1
:103F70004C9002E084F84C10B0E794F8261009B198
:103F80000229ABD1D0F8001521F0804141F0004169
:103F9000C0F80015A2E724E084F84D10E27E012A63
:103FA0009CD184F84C10D0F8041541F48031C0F84D
:103FB0000415D0F80C1541F04001C0F80C15D0F8EC
:103FC0000C1521F02001C0F80C15D6E700E002E046
:103FD00084F84D10ABE784F84D10606C401C6064B1
:103FE000A2E73146286804F0BDF8400610D507EB7B
:103FF00046114020C1F8080584F84DB0A07E08B9EC
:10400000C4F8448031462868BDE8F05F03F0FBBD8A
:104010003146286804F0A6F8C0067FF565AF94F82D
:104020002600032803D028B1022803D00FE0C4F8EB
:10403000448006E0C4F84480A87910B1E07E0128ED
:1040400018D184F84D903146286803F0DCFDE07EFD
:1040500001280FD107EB461084F81B80D0F8041517
:1040600021F48031C0F80415D0F80C1541F020017E
:10407000C0F80C15102007EB4611C1F80805F7E64B
:104080002DE9F05F054600680F46064604F06AF821
:10409000C7EB071140074FF0040A05EB810405D573
:1040A00006EB4711C1F808A5072089E039462868C2
:1040B00004F058F880064FF000084FF001094FF067
:1040C000020B28D506EB47112020C1F80805607EB9
:1040D0000326012809D184F8198084F84CB084F8AB
:1040E0004D603946286803F08EFDA07E012810D16E
:1040F000E07E00280DD194F82600012801D084F834
:104100001B9084F84D603946286803F07CFDC4F8A4
:104110004480BDE8F09F3946286804F023F8800504
:1041200006D506EB47114FF40070C1F8080549E0C9
:104130003946286804F016F8C00720D0C4F8448037
:104140003946286804F00EF8400606D506EB4711FC
:1041500084F819904020C1F80805E07E48B106EBCC
:10416000471084F81B80D0F8041521F48031C0F882
:10417000041506EB47114846C1F8089520E039467A
:10418000286803F0EFFF40060ED5052084F84D00A7
:10419000A07E08B984F81990C4F84480394628688C
:1041A00003F031FD402028E03946286803F0DAFFAB
:1041B00000070DD506EB47110820C1F808050620B9
:1041C00084F84D0039462868BDE8F05F03F01BBD58
:1041D0003946286803F0C6FFC00613D5C4F84480EA
:1041E00084F84DA0607E18B9207E08B984F8199033
:1041F0003946286803F007FD102006EB4711C1F887
:10420000080586E73946286803F0ACFF00061CD590
:10421000A87970B1606C401C6064022811D9C4F8A0
:104220004480524684F84CA039462846FEF7E3F90C
:1042300009E0072084F84D003946286803F0E3FCC4
:1042400001E084F84CB08020D7E73946286803F0B5
:1042500089FF400509D5092084F84D0039462868B2
:1042600003F0D1FC4FF48060C7E73946286803F0BB
:1042700079FF8007C5D506EB47125846C2F808B546
:1042800094F84D10012917D003293AD004293ED0C3
:1042900005294CD006294DD0072901D00929B0D1D4
:1042A00084F84D00616C491C6164022948D9C4F846
:1042B000448084F84CA04DE084F84D0084F84C9084
:1042C00094F82600022801D0032843D1A87928B900
:1042D00094F83D0080F0010084F83D00A8790128A1
:1042E00038D1606B10B3218D0844401EB0FBF1F053
:1042F000C0072FD094F83D0080F0010084F83D0005
:1043000028E084F84D00E17E012916D022E084F8EF
:104310004D0084F84C00E07E01281BD184F81B80FE
:10432000D2F8040520F48030C2F8040512E084F8C5
:104330004D0002E084F84D00052084F84C0009E0AF
:1043400084F84C00D2F8000520F0804040F0004096
:10435000C2F8000594F84C2039462846FEF74BF980
:10436000D7E67CB504680546D4F840040190D4F83B
:10437000400420F02E0000900198800709D5019894
:10438000C00702D02846FEF7AFF8009840F00200C0
:1043900000900198000724D5009840F00800009094
:1043A000019840071AD5687A022803D0E8790128D5
:1043B0000CD00FE00198C0F341400228286803D0D8
:1043C000012103F0B3FE05E00221FAE74EF660207A
:1043D000C4F804042846FEF78FFA02E02846FEF7E8
:1043E00087FA01988006009802D540F020000090DE
:1043F000C4F840047CBD2DE9F04102460068064641
:10440000016AC1F3434301F00F07C1F30A15022B00
:104410002ED1002D2CD0C7EB071102EB8104E16AED
:10442000002925D0A26B636B2A449A4222D82A46DF
:1044300003F0A4FEE06A2844E062A06B2844A06375
:1044400006EB4710D0F81015228DC1F3C941AA42DE
:104450000ED100290CD0D0F8001521F0804141F098
:104460000041C0F8001514F83C0F80F001002070E6
:10447000BDE8F081042084F84C00F9E7FEE7000075
:104480000148FEF76EBA0000A801002038B5806B25
:10449000002190F83D202B4B46F2A8141B68B3FB7B
:1044A000F4F3C3EBC30303EB830300933BB15B1E45
:1044B000009303681B689B0505D5009BF6E7036C1A
:1044C00043F020030364436B03B1D963836B03B1EF
:1044D000D96303681C6824F480641C604185436BC5
:1044E00003B11965836B03B1196503681C6824F077
:1044F00001041C6090F83D402023602C0BD0282440
:1045000034EA02020FD080F83D3080F83E1000BF40
:10451000FEF73FFB38BD80F83D3080F83E10016467
:10452000FEF71DFA38BD0268136843F001031360FB
:104530000268136843F480631360016380F83D40B0
:10454000E6E70000BC00002000684169C943090695
:1045500001D400210161704770B5044690F83D0018
:1045600094F83E10102901D0402906D1222804D108
:1045700021680A6822F400620A60282131EA0002F8
:104580004FF000054FF0200626D021684968090544
:1045900005D4602803D084F83D6084F83E5025633C
:1045A00020684168090537D5416821F40061416000
:1045B000606B90F835203C49012A11D00165606B91
:1045C000FDF7F0FD38B32068016821F001010160BA
:1045D00084F83D60606B1CE0256384F83D10DFE7E4
:1045E000A06B0165A06BFDF7DDFDA0B120684169FE
:1045F000C943490605D40069616A0870606A401CB5
:1046000060622068016821F00101016084F83D606A
:10461000A06B016D884710E094F83D10602910D020
:104620004169C943490605D40069616A0870606A36
:10463000401C60622046FEF7ACFA206CC1071CD11A
:1046400015E084F83D6025644169C943490605D4F5
:104650000069616A0870606A401C606220680168D5
:1046600021F0010101602046FEF779F9E5E78107B5
:1046700003D4410701D4000704D52068416821F420
:10468000E061416094F83D00216C49070BD5282872
:1046900009D10648E062256384F83D6084F83E5005
:1046A0002046FEF73BFB70BD8D4400080000FFFF75
:1046B00001684A69D24352050FD46FF480624A619F
:1046C000002140F8301F202242738173026942F0BA
:1046D000040202610173012070470020704710B589
:1046E000C26A438D0168042B06D0438D032B08D08A
:1046F000438D022B1DD012E04A6822F480624A608A
:104700000CE04B6823F480634B60042A06D0022A35
:1047100004D001680A6822F480620A6001680969AD
:10472000426A1170416A491C4162418D491E4185AE
:1047300010BD012A34D0102A32D0042A34D0022AE3
:1047400032D00B6843F400730B6001680969436A57
:104750001970416A491C4162438D5B1E43850368A1
:104760001B690B70416A491C4162418D491E41859C
:1047700001684B6823F440734B60202180F83D10A2
:1047800090F83E300021402B80F83E1010D0082ACF
:1047900002D0202A00D012210163FEF7C0FA10BD1A
:1047A0000B6823F48063CFE70B6843F48063CBE7A7
:1047B0000163FEF7B6FA10BD38B590F83D10222916
:1047C00010D1C36A418D03290DD901680969426A74
:1047D0001170416A491C4162418D491E4185418DDC
:1047E000032906D038BDC26A022A02D0012906D0A8
:1047F00029B10068416821F48061416038BD2A4ACE
:1048000046F2A81400211268B2FBF4F202EB820215
:10481000009202682024009D6D1E009526D0156828
:10482000AD05F8D4156825F48065156002685568F3
:1048300025F4E065556002681269456A2A70426A8B
:10484000521C4262428D521E428580F83D4090F8D3
:104850003E2080F83E10402A21D0082B02D0202B89
:1048600000D012210163FEF75AFA38BD036C43F001
:1048700020030364536823F4E06353600268126901
:10488000436A1A70426A521C4262428D521E42852D
:1048900080F83D4080F83E10FEF77BF938BD01639B
:1048A000FEF73FFA38BD0000BC00002010B5C26A18
:1048B00090F83D1021290BD1418D51B1416A026818
:1048C00009781161416A491C4162418D491E418547
:1048D00010BD20230021082A13D0202A11D012F560
:1048E000803F0ED00268546824F4E06454601122C2
:1048F000026380F83E1080F83D3000BFFEF710FAEA
:1049000010BD0268546824F4E064546002681468BE
:1049100044F400741460016380F83D3090F83E2048
:1049200080F83E10402AE9D1FEF7FCF910BD0000E6
:1049300010B590F83D1090F83E30C26A048DB4B1C5
:10494000212903D0402B11D122290FD1418DE1B370
:1049500090F83E10402942D0416A026809781161FE
:10496000416A491C4162418D491E418510BD212982
:10497000E8D120230021082A13D0202A11D012F5D3
:10498000803F0ED00268546824F4E0645460112221
:10499000026380F83E1080F83D3000BFFEF7C0F99A
:1049A00010BD0268546824F4E0645460026814681E
:1049B00044F400741460016380F83D3090F83E20A8
:1049C00080F83E10402AE9D100E002E0FEF7AAF9A3
:1049D00010BD0068416821F48061416010BDBDE8F0
:1049E000104000F0D3B8000078B590F83E50C26A8D
:1049F000036B90F83D6000240168222E7AD1066D89
:104A00000EB9402D76D0056D1DB90569B5F5404F3D
:104A100009D0458D05B3468D384D012E0ED0438DFE
:104A2000022B3AD05DE04A698A6900920A6842F432
:104A300080720A60016D491C016578BDAA4213D1DC
:104A40000A6822F480620A6001684A68120503D588
:104A50000A6822F4806216E04A698A6900920A684C
:104A600042F400720A6039E0082A10D0202A0ED0E1
:104A7000122B0AD0042A03D0022A01D0102AE7D12F
:104A80000A6842F480620A6024E0012AE0D00A68E1
:104A900022F480620A600168DEE7042A21D0022A3B
:104AA0001FD0102A1DD00B6823F480630B600168AF
:104AB0000B6843F400630B6001684B681B0509D564
:104AC000AA4212D0012A10D0082A0ED0102A0CD0E7
:104AD000202A0AD001684A6989690091046578BD75
:104AE00008E00B6843F48063E5E74A6842F48052CB
:104AF0004A60EFE7486988690090F0E70000FFFF2F
:104B000090F83E10402910D00169B1F5804F19D0BE
:104B1000016DA9B3016D012910D1416C5FF0F10263
:104B200001F4407142EAD11106E0016D0029416CA7
:104B300005D0C9B241F0010100680161704701F080
:104B4000FE01F9E790F83D102129416C09D0C9B266
:104B500041F0010102681161416B29B1C96B49B98A
:104B600002E001F0FE01F5E7816B0029E6D0C96B98
:104B70000029E3D00068416841F40061416070475A
:104B8000FFE7416CF02201F44071CBE710B590F8DB
:104B90003D10026D4AB1026D012A14D0026D022A45
:104BA00016D0BDE81040FFF7CFBCC16C0129816C65
:104BB00002D0C1F3072108E00268C9B21161016D9A
:104BC000891C016510BD816CC9B20268116123E0C6
:104BD00022291CD0428D0AB1212920D0428D002AE1
:104BE000F0D12129EED101684A6822F4E0624A60DE
:104BF00001680A6842F400720A6000210163202201
:104C000080F83D2080F83E10FEF78CF810BD01685A
:104C10000A6842F480720A60016D491CD1E7416A5A
:104C2000026809781161416A491C4162418D491E3F
:104C3000418510BD2DE9F84F0446006889460B9D5B
:104C400001689846174641F4806101602068016858
:104C500041F48071016000954FF0011B002259461C
:104C600020460A9B00F0B6F94FF4007A40B1206864
:104C70000068C00501D5C4F840A00320BDE8F88F46
:104C8000216809F0FE0008612B46284920460A9A4F
:104C900000F0E8F9F0BB20684169806900902A467D
:104CA00020460A9900F074FA40B1206C04283AD1E9
:104CB0002068016841F40071016034E0FEB2B8F18F
:104CC000010F09D02168380A08612A4620460A994E
:104CD00000F05EFA0028E8D1206806612A462046E6
:104CE0000A9900F055FA0028DFD12068016841F4E4
:104CF0008071016000950022594620460A9B00F011
:104D000069F90028B3D1216809F0FF0040F00100E3
:104D1000086100E007E02B46044920460A9A00F0AB
:104D2000A1F90028AAD00120A8E700000200010094
:104D30002DE9F843044600680D46DDE9089701684F
:104D40009846164641F4807101604B4600224FF0B0
:104D500001112046009700F03DF948B12068006835
:104D6000C00502D54FF4007020640320BDE8F8832D
:104D7000216805F0FE0008613B464A461549204679
:104D800000F070F988B920684169806900903A465E
:104D90004946204600F0FCF948B1206C042804D1B3
:104DA0002068016841F4007101600120DEE7F5B27E
:104DB000B8F1010F09D02168300A08613A46494626
:104DC000204600F0E5F90028E7D1206805610020C1
:104DD000CCE700000200010038B50C4690F83D20F9
:104DE00000212825954302680B4605D05169916939
:104DF000009180F83C3038BD556825F480655560D9
:104E0000E243540700D50121120601D5828900E052
:104E1000028B80F83C3092B2FDF7A2FD38BD000055
:104E2000F8B590F83D6004460068416821F4E061FF
:104E300041602068002541690091016841F001014D
:104E400001602068016821F4806101602068416888
:104E5000090520D5474F222E48D02A2E46D0616B17
:104E6000096849686185618D19B1216C41F00401BF
:104E70002164416821F400614160606BFDF7A4F991
:104E8000012808D0606B0765606BFDF78BF910B1E6
:104E9000606B016D8847608D08B320684169C94324
:104EA000490708D40069616A0870606A401C606242
:104EB000608D401E608520684169C943490608D459
:104EC0000069616A0870606A401C6062608D401E03
:104ED0006085608D18B1206C40F004002064206C67
:104EE00000B32046BDE8F840FFF736BBA16B096868
:104EF00049686185618D19B1216C41F0040121641B
:104F0000416821F400614160A06BFDF75DF9012863
:104F1000C1D0A06B0765A06BFDF744F90028BAD09B
:104F2000A06BB6E72A2E06D12563282084F83D0021
:104F30002046FEF7D1F894F83D10202028290DD006
:104F4000216B222901D0222E07D1256384F83D0050
:104F500084F83E502046FEF7BFF8F8BD0649E162EE
:104F6000256384F83D0084F83E502046FDF7D6FEC8
:104F7000F8BD00008D4400080000FFFF70B5164624
:104F80000D4604461EE02046FFF792FB08B10120C3
:104F900070BD681C16D0FDF7A1FA801BA84200D88E
:104FA00085B920684069C04340070BD5002044F80C
:104FB000300F20216173A073216941F0200121612C
:104FC0002073E4E720684069C0434007DBD4002039
:104FD00070BD00002DE9F047984617460D4604467F
:104FE000C1F30746DDF820902AE000BFB8F1FF3F8B
:104FF00026D0FDF773FAA0EB0901414502D8B8F1BC
:10500000000F1DD12068012E16D0806925EA00000E
:105010000004000C12D00020B84211D1002044F846
:10502000300F20216173A073216941F020012161BB
:1050300020730120BDE8F0874069E7E70120EBE736
:105040002068012E0AD0806925EA00000004000CC7
:1050500006D00020B842C9D00020EBE74069F3E752
:105060000120F7E72DE9F047984616460D4604461D
:105070004FF000094FF0200AC1F3074723E02068F2
:105080004069C043400515D42068016841F40071AF
:10509000016021686FF480604861C4F8309084F842
:1050A0003DA084F83E90216C41F00401216484F815
:1050B0003C9021E0701C06D0FDF710FAA0EB080030
:1050C000B04203D816B1012F1FD021E02068012F74
:1050D00015D0806925EA00000004000C18D000BF3C
:1050E00044F8309F84F80DA084F80E90216941F0B7
:1050F0002001216184F80C900120BDE8F08740690F
:1051000025EA00000004000CEAD12068406901E0B3
:105110002068806925EA00000004000CAFD1ECE7AC
:105120002DE9F041002590460E460446202728E050
:105130004069C043C0060CD454F8301B6FF0100017
:10514000486144F810596777A577206A206225776F
:1051500014E0FDF7C3F9A0EB0800B04200D886B90F
:1051600020684069C04340060BD544F8305F677340
:10517000A573206940F02000206125730120BDE85F
:10518000F08120684169C9434906D1D40020F6E77F
:1051900070B516460D4604461EE02046FFF788FA15
:1051A00008B1012070BD681C16D0FDF797F9801B6F
:1051B000A84200D885B920684069C04300060BD5D5
:1051C000002044F8300F20216173A073216941F061
:1051D000200121612073E4E720684069C043000694
:1051E000DBD4002070BD70B504462DED108B82B06D
:1051F000B0EE429AF0EE629AB0EE40FAF0EE60FA4B
:1052000090ED08EB51EC110B53EC1E2B05F044FD17
:1052100041EC100B51EC190B53EC102B05F030FB4B
:1052200094ED061B53EC112B05F07CF894ED10DB8C
:1052300041EC1A0B53EC1D2B51EC190B05F020FB24
:105240000E4646EC100B94ED0CCB054653EC1C2B94
:1052500051EC100B05F020FD94ED0EBB53EC1B2B15
:1052600005F01AFD94ED001B53EC112B05F05AF8D4
:1052700053EC192B05F004FB94ED0A1B53EC112B96
:1052800005F050F846EC105B41EC180B53EC1C2B6E
:1052900051EC100B05F028FC46EC105B41EC1C0BAC
:1052A00053EC1B2B51EC100B05F01EFC94ED020B84
:1052B00041EC1B0B53EC192B51EC100B05F0E0FAF1
:1052C00053EC1D2B05F02EF841EC100B51EC180B94
:1052D0008DED000B94ED040B53EC102B05F022F830
:1052E00041EC190B51EC180B53EC192B05F0CEF8CF
:1052F00041EC1D0B53EC192B51EC1B0B05F0C6F8C0
:1053000041EC190B53EC1A2B51EC1F0B05F0C4FCAC
:1053100041EC1F0B51EC1D0B53EC1F2B05F0B0FAA9
:1053200053EC1A2B04F0FEFF41EC1A0B53EC1F2B2D
:1053300084ED06AB51EC190B05F0A2FA53EC1E2BD1
:1053400004F0F0FFC4E9080153EC182B51EC1D0BDD
:1053500005F096FA53EC182B05F0C6FBC4E90A01D8
:1053600053EC1C2B51EC1D0B05F08AFA53EC1C2B53
:1053700005F0BAFBC4E90C0153EC182B51EC190BE6
:1053800005F07EFA53EC1B2B05F0AEFBC4E90E01D1
:1053900053EC1C2B51EC190B05F072FA9DED000B30
:1053A00053EC102B05F0A0FBC4E9100102B0B0EEE5
:1053B0004A0AF0EE6A0ABDEC108B70BD0448017811
:1053C000002903D101210170FCF76ABC704700007D
:1053D000CC0000204FF0D041C0B208804888704710
:1053E00010B500224FF0D04404E000BF30F8023B7B
:1053F0006380921C8A42F9D310BD4FF0D0410880DF
:1054000070472DE9F04186B08046012504A8CDE91A
:10541000000564242B467522D02102944046FDF7F6
:1054200083FC9DF81000682803D0012006B0BDE879
:10543000F081002703AE8DF80C700096CDE9015481
:1054400001236B22D0214046FDF770FD07208DF827
:105450000C000096CDE9015401231922D0214046C9
:10546000FDF764FD8DF80C700096CDE90154012321
:105470001C22D0214046FDF759FD8DF80C70009696
:10548000CDE9015401231B22D0214046FDF74EFDFA
:105490000020CBE72DE9F0470C462DED0C8B88B0B2
:1054A0009FED9A9B9FED9BDB9FED9CBB9FED9DAB82
:1054B00064230E2203A98DE80E0001233B22D02194
:1054C000FDF732FCBDF80C0040BA00B22080BDF8F8
:1054D0000E1049BA0EB26680BDF8101049BA0DB26E
:1054E000A580BDF8121049BA0FFA81FABDF8141060
:1054F00049BA0FB22784BDF8161049BA09B26184BF
:105500008946BDF8181049BA09B2A184884605F049
:1055100051F99FED868B53EC182B05F0B1F9C4E9D6
:105520000201304605F046F953EC182B05F0A8F9B6
:10553000C4E90401284605F03DF99FED7E1B53ECBC
:10554000112B04F0A3FF00EE10AAB8EEC00A9FEDE5
:105550007B1AC0EE010A9FED7A0AC4E906013846BB
:1055600030EE800A84ED100A05F024F99FED758B6A
:1055700053EC182B04F08AFFC4E90A01484605F0F1
:1055800019F953EC182B04F081FFC4E90C014046D3
:1055900005F010F953EC182B04F078FFC4E90E0164
:1055A000FCF79CFF694D2968401A05F01AF99FED38
:1055B000681B53EC112B04F069FF41EC1C0BFCF74A
:1055C0008DFF2860208810FB00F1A08810FB0010E0
:1055D00005F0F0F841EC100B03F030F9B0EE408A22
:1055E000F0EE608A53EC192B51EC180B05F0A6F87D
:1055F00013D0B4F9020005F0DDF853EC182B04F0D9
:1056000045FF41EC100B02F0A3FE53EC1D2B51ECB7
:10561000100B05F035F941EC190BB4F9040005F055
:10562000C9F841EC180BB4F90000404205F0C2F88B
:1056300041EC100BB0EE481AF0EE681A02F0F4FFDD
:1056400053EC1D2B51EC100B05F01AF941EC180B23
:1056500053EC1B2B05F0D8F808D294ED140B53EC47
:105660001A2B51EC100B05F009FA0FD353EC1A2B3F
:1056700051EC180B05F002FA11D294ED140B53EC17
:105680001B2B51EC100B05F0BFF808D22F485030FF
:1056900080ED068B84ED148B94ED140B0FE02B48FA
:1056A00094ED0C1BB0EE4C2AF0EE6C2AB0EE480ADA
:1056B000F0EE680A5030FFF796FD84ED140B03F00E
:1056C000B3F853EC1A2B51EC100B05F0D7F907D2B5
:1056D00094ED0A0B51EC100B04F018FEC4E90A011A
:1056E0001A4894ED0A1BB0EE4C2AF0EE6C2AB0EE8C
:1056F000490AF0EE690A0830FFF775FD84ED120BD8
:1057000008B0BDEC0C8BBDE8F08700000000000085
:1057100000000000F8C1631ADCA54C400000000046
:10572000008056C0000000000080564000000000CD
:105730000000103F000000000029CC400000AA43F8
:10574000B81E12420000000000606040000000200F
:105750000000000000408F407FB5002415480094F1
:10576000019402941249039401604FF48031C0E91E
:10577000011401250461057680F820400E49C0E936
:105780000A14C561C46080F830404561FCF730FC04
:1057900008B172B6FEE70820CDE90005694602941B
:1057A0000448FCF77FFB002801D072B6FEE77FBDFE
:1057B00000220140600100200100000F20B1002202
:1057C00020210248FCF784BE0122F9E7001C0240B8
:1057D00010B504490448FCF740FA0249491E087014
:1057E00010BD0000310100204CC9000800B587B091
:1057F0001C216846FAF7A5FF16484FF020414FF4E8
:10580000805201601449416000218160C1600161E2
:1058100041618161C1610162C0E90912C162016334
:105820004163816341640F20FF220090CDE90102B2
:105830000390102004901120CDE905010022694653
:105840000448FDF7CFFF002801D072B6FEE707B08D
:1058500000BD0000D4020020040100A02DE9F04F9B
:1058600087B014216846FAF76CFFEB480024016802
:1058700041F010010160016801F01001059101681B
:1058800041F002010160016801F002010591016827
:1058900041F040010160016801F04001059101689B
:1058A00041F008010160016801F0080105910168FB
:1058B00041F004010160016801F0040105910168F3
:1058C00041F001010160016801F0010105910168E9
:1058D00041F480710160016801F4807105910168F3
:1058E00041F080010160016801F0800105910168CB
:1058F00041F0200101600068002200F020000590C6
:105900004FF48A51C548FCF7E3FDDFF814B30022D9
:105910004FF400715846FCF7DBFD002248F22001ED
:10592000C048FCF7D5FD00228021BF48FCF7D0FD20
:1059300000228021BD48FCF7CBFD4FF48070009021
:105940000225CDE901544FF00B08CDE90348694623
:10595000B748FCF7BDFC43F62340CDE9000502AA99
:1059600003264FF00A0982E850026946B048FCF766
:10597000AFFC4FF4D0400090CDE90154CDE903488D
:105980006946A648FCF7A4FC4FF49850CDE9000501
:1059900002940C20CDE903606946A348FCF798FC0B
:1059A000A80300904FF40410CDE9010469469B4818
:1059B000FCF78EFC4FF48A5000900127CDE901746A
:1059C000694696480394FCF783FCF0200090CDE9EB
:1059D00001540D20CDE9034069465846FCF778FC98
:1059E00009200090CDE901540520CDE90340694626
:1059F0005846FCF76DFC4FF0040A4FF49010CDF8B8
:105A000000A0CDE9010469465846FCF761FC280373
:105A100000904FF48810CDE9010469468248FCF7F4
:105A200057FC28020090CDE901746946584603945A
:105A3000FCF74EFC0C20CDF800A0CDE90360CDE9C9
:105A4000015469467B48FCF743FC48F22000009073
:105A5000CDE90174694673480394FCF739FC680288
:105A60000090CDE90154CDE9034869465846FCF75A
:105A70002FFCA802CDE9000502AA694682E850027F
:105A80005846FCF725FC28038DE8910069466548D7
:105A9000FCF71EFC4FF4BE400090CDE901540D20F0
:105AA000CDE9034069465F48FCF712FCCC2000902A
:105AB000CDE90154CDE9034869465A48FCF708FC92
:105AC000E8010090CDE90154039469465A480494D2
:105AD000FCF7FEFB4FF0800BCDF800B0CDE9017470
